1AIRLINE STANDARD SCHEDULE DATA SET     1                                                                                                                                                      001000001
00000000000000000000000000000000000000000000000000000000000000000000000000000000000000000000000000000000000000000000000000000000000000000000000000000000000000000000000000000000000000000000000000000000
00000000000000000000000000000000000000000000000000000000000000000000000000000000000000000000000000000000000000000000000000000000000000000000000000000000000000000000000000000000000000000000000000000000
00000000000000000000000000000000000000000000000000000000000000000000000000000000000000000000000000000000000000000000000000000000000000000000000000000000000000000000000000000000000000000000000000000000
00000000000000000000000000000000000000000000000000000000000000000000000000000000000000000000000000000000000000000000000000000000000000000000000000000000000000000000000000000000000000000000000000000000
2UTK  0008S07 20JUN0710AUG0708JUN07                             08JUN07C20JUN0710AUG07                                                                                                        1406000002
00000000000000000000000000000000000000000000000000000000000000000000000000000000000000000000000000000000000000000000000000000000000000000000000000000000000000000000000000000000000000000000000000000000
00000000000000000000000000000000000000000000000000000000000000000000000000000000000000000000000000000000000000000000000000000000000000000000000000000000000000000000000000000000000000000000000000000000
00000000000000000000000000000000000000000000000000000000000000000000000000000000000000000000000000000000000000000000000000000000000000000000000000000000000000000000000000000000000000000000000000000000
00000000000000000000000000000000000000000000000000000000000000000000000000000000000000000000000000000000000000000000000000000000000000000000000000000000000000000000000000000000000000000000000000000000
3 TK  0010101J20JUN0708AUG07  3  6  IST09300930+0300  JFK20452045-0400  332                                                              TK  002                            C22Y228               000003
3 TK  0010201J21JUN0710AUG0712 45 7 IST09300930+0300  JFK20452045-0400  343                                                              TK  002                            C34Y237               000004
3 TK  0020101J20JUN0730JUN07  3  6  JFK22452245-0400  IST09050905+0300  332                                                              TK 1827                            C22Y228               000005
3 TK  0020201J21JUN0728JUN07   4    JFK22452245-0400  IST09050905+0300  343                                                              TK  090                            C34Y237               000006
3 TK  0020301J22JUN0710AUG07    5   JFK22452245-0400  IST09050905+0300  343                                                              TK  011                            C34Y237               000007
3 TK  0020401J24JUN0705AUG07      7 JFK22452245-0400  IST09050905+0300  343                                                              TK  000                            C34Y237               000008
3 TK  0020501J25JUN0709JUL071       JFK22452245-0400  IST09050905+0300  343                                                              TK  050                            C34Y237               000009
3 TK  0020601J26JUN0726JUN07 2      JFK22452245-0400  IST09050905+0300  343                                                              TK 1527                            C34Y237               000010
3 TK  0020701J03JUL0717JUL07 2 4    JFK22452245-0400  IST09050905+0300  343                                                              TK 1527                            C34Y237               000011
3 TK  0020801J04JUL0714JUL07  3  6  JFK22452245-0400  IST09050905+0300  332                                                              TK 1953                            C22Y228               000012
3 TK  0020901J16JUL0716JUL071       JFK22452245-0400  IST09050905+0300  343                                                              TK  000                            C34Y237               000013
3 TK  0021001J18JUL0721JUL07  3  6  JFK22452245-0400  IST09050905+0300  332                                                              TK 1991                            C22Y228               000014
3 TK  0021101J19JUL0709AUG07   4    JFK22452245-0400  IST09050905+0300  343                                                              TK  090                            C34Y237               000015
3 TK  0021201J23JUL0723JUL071       JFK22452245-0400  IST09050905+0300  343                                                              TK 1527                            C34Y237               000016
3 TK  0021301J24JUL0724JUL07 2      JFK22452245-0400  IST09050905+0300  343                                                              TK 1991                            C34Y237               000017
3 TK  0021401J25JUL0725JUL07  3     JFK22452245-0400  IST09050905+0300  332                                                              TK 1827                            C22Y228               000018
3 TK  0021501J28JUL0728JUL07     6  JFK22452245-0400  IST09050905+0300  332                                                              TK 1939                            C22Y228               000019
3 TK  0021601J30JUL0706AUG071       JFK22452245-0400  IST09050905+0300  343                                                              TK  050                            C34Y237               000020
3 TK  0021701J31JUL0707AUG07 2      JFK22452245-0400  IST09050905+0300  343                                                              TK 1527                            C34Y237               000021
3 TK  0021801J01AUG0708AUG07  3  6  JFK22452245-0400  IST09050905+0300  332                                                              TK 1827                            C22Y228               000022
3 TK  0050101J20JUN0701JUL07  3 5 7 IST06450645+0300  ORD18401840-0500  343                                                              TK  006                            C34Y237               000023
3 TK  0050201J02JUL0710AUG071 3 567 IST06450645+0300  ORD18401840-0500  343                                                              TK  006                            C34Y237               000024
3 TK  0060101J20JUN0715JUL07  3 5 7 ORD22002200-0500  IST09000900+0300  343                                                              TK  050                            C34Y237               000025
3 TK  0060201J02JUL0702JUL071       ORD22002200-0500  IST09000900+0300  343                                                              TK  090                            C34Y237               000026
3 TK  0060301J07JUL0714JUL071    6  ORD22002200-0500  IST09000900+0300  343                                                              TK 1827                            C34Y237               000027
3 TK  0060401J16JUL0729JUL071 3 5 7 ORD22002200-0500  IST09000900+0300  343                                                              TK  050                            C34Y237               000028
3 TK  0060501J21JUL0728JUL07     6  ORD22002200-0500  IST09000900+0300  343                                                              TK 1827                            C34Y237               000029
3 TK  0060601J30JUL0704AUG071    6  ORD22002200-0500  IST09000900+0300  343                                                              TK  005                            C34Y237               000030
3 TK  0060701J01AUG0701AUG07  3     ORD22002200-0500  IST09000900+0300  343                                                              TK  090                            C34Y237               000031
3 TK  0060801J03AUG0710AUG07  3 5 7 ORD22002200-0500  IST09000900+0300  343                                                              TK  050                            C34Y237               000032
3 TK  0060901J06AUG0706AUG071       ORD22002200-0500  IST09000900+0300  343                                                              TK  0902                           C34Y237               000033
3 TK  0110101J23JUN0704AUG07     6  IST12301230+0300  JFK23452345-0400  343                                                              TK  012                            C34Y237               000034
3 TK  0120101J24JUN0705AUG07      7 JFK01450145-0400  IST12051205+0300  343                                                              TK  090                            C34Y237               000035
3 TK  0200101J20JUN0710AUG071234567 IST20202020+0300  PEK05200520+0800  332                                                                                                 C22Y228               000036
3 TK  0200102J21JUN0711AUG071234567 PEK06300630+0800  PVG08300830+0800  332                                                              TK  021                            C22Y228               000037
3 TK  0210101J20JUN0701JUL071 3  67 PVG12301230+0800  PEK14301430+0800  332                                                                                                 C22Y228               000038
3 TK  0210102J20JUN0701JUL071 3  67 PEK15551555+0800  IST02400240+0300  332                                                              TK 1184                            C22Y228               000039
3 TK  0210201J21JUN0728JUN07 2 4    PVG12301230+0800  PEK14301430+0800  332                                                                                                 C22Y228               000040
3 TK  0210202J21JUN0728JUN07 2 4    PEK15551555+0800  IST02400240+0300  332                                                              TK 1979                            C22Y228               000041
3 TK  0210301J22JUN0706JUL07    5   PVG12301230+0800  PEK14301430+0800  332                                                                                                 C22Y228               000042
3 TK  0210302J22JUN0706JUL07    5   PEK15551555+0800  IST02400240+0300  332                                                              TK  001                            C22Y228               000043
3 TK  0210401J02JUL0707JUL071  4 6  PVG12301230+0800  PEK14301430+0800  332                                                                                                 C22Y228               000044
3 TK  0210402J02JUL0707JUL071  4 6  PEK15551555+0800  IST02400240+0300  332                                                              TK 1907                            C22Y228               000045
3 TK  0210501J03JUL0708JUL07 23   7 PVG12301230+0800  PEK14301430+0800  332                                                                                                 C22Y228               000046
3 TK  0210502J03JUL0708JUL07 23   7 PEK15551555+0800  IST02400240+0300  332                                                              TK 1184                            C22Y228               000047
3 TK  0210601J09JUL0709JUL071       PVG12301230+0800  PEK14301430+0800  332                                                                                                 C22Y228               000048
3 TK  0210602J09JUL0709JUL071       PEK15551555+0800  IST02400240+0300  332                                                              TK 1951                            C22Y228               000049
3 TK  0210701J10JUL0717JUL07 2  56  PVG12301230+0800  PEK14301430+0800  332                                                                                                 C22Y228               000050
3 TK  0210702J10JUL0717JUL07 2  56  PEK15551555+0800  IST02400240+0300  332                                                              TK 1979                            C22Y228               000051
3 TK  0210801J11JUL0715JUL07  3   7 PVG12301230+0800  PEK14301430+0800  332                                                                                                 C22Y228               000052
3 TK  0210802J11JUL0715JUL07  3   7 PEK15551555+0800  IST02400240+0300  332                                                              TK 1184                            C22Y228               000053
3 TK  0210901J12JUL0712JUL07   4    PVG12301230+0800  PEK14301430+0800  332                                                                                                 C22Y228               000054
3 TK  0210902J12JUL0712JUL07   4    PEK15551555+0800  IST02400240+0300  332                                                              TK  116                            C22Y228               000055
3 TK  0211001J16JUL0716JUL071       PVG12301230+0800  PEK14301430+0800  332                                                                                                 C22Y228               000056
3 TK  0211002J16JUL0716JUL071       PEK15551555+0800  IST02400240+0300  332                                                              TK 1907                            C22Y228               000057
3 TK  0211101J18JUL0729JUL07 23  67 PVG12301230+0800  PEK14301430+0800  332                                                                                                 C22Y228               000058
3 TK  0211102J18JUL0729JUL07 23  67 PEK15551555+0800  IST02400240+0300  332                                                              TK 1184                            C22Y228               000059
3 TK  0211201J19JUL0726JUL071  4    PVG12301230+0800  PEK14301430+0800  332                                                                                                 C22Y228               000060
3 TK  0211202J19JUL0726JUL071  4    PEK15551555+0800  IST02400240+0300  332                                                              TK 1979                            C22Y228               000061
3 TK  0211301J20JUL0710AUG07    5   PVG12301230+0800  PEK14301430+0800  332                                                                                                 C22Y228               000062
3 TK  0211302J20JUL0710AUG07    5   PEK15551555+0800  IST02400240+0300  332                                                              TK  001                            C22Y228               000063
3 TK  0211401J30JUL0730JUL071       PVG12301230+0800  PEK14301430+0800  332                                                                                                 C22Y228               000064
3 TK  0211402J30JUL0730JUL071       PEK15551555+0800  IST02400240+0300  332                                                              TK 1907                            C22Y228               000065
3 TK  0211501J31JUL0709AUG07 2 4    PVG12301230+0800  PEK14301430+0800  332                                                                                                 C22Y228               000066
3 TK  0211502J31JUL0709AUG07 2 4    PEK15551555+0800  IST02400240+0300  332                                                              TK 1979                            C22Y228               000067
3 TK  0211601J01AUG0708AUG071 3  67 PVG12301230+0800  PEK14301430+0800  332                                                                                                 C22Y228               000068
3 TK  0211602J01AUG0708AUG071 3  67 PEK15551555+0800  IST02400240+0300  332                                                              TK 1184                            C22Y228               000069
3 TK  0460101J20JUN0722JUN07  3 5   IST20452045+0300  KIX07450745+0900  343                                                              TK  047                            C34Y237               000070
3 TK  0460201J27JUN0710AUG07  3 5 7 IST20452045+0300  KIX07450745+0900  343                                                              TK  047                            C34Y237               000071
3 TK  0470101J21JUN0728JUL07   4 6  KIX14451445+0900  IST03450345+0300  343                                                              TK  005                            C34Y237               000072
3 TK  0470201J02JUL0723JUL071       KIX14451445+0900  IST03450345+0300  343                                                              TK  001                            C34Y237               000073
3 TK  0470301J30JUL0706AUG071  4    KIX14451445+0900  IST03450345+0300  343                                                              TK  001                            C34Y237               000074
3 TK  0470401J04AUG0709AUG07   4 6  KIX14451445+0900  IST03450345+0300  343                                                              TK  005                            C34Y237               000075
3 TK  0500101J21JUN0709AUG0712 4 6  IST14201420+0300  NRT02000200+0900  343                                                              TK  051                            C34Y237               000076
3 TK  0510101J20JUN0704JUL07  3     NRT03500350+0900  IST16201620+0300  343                                                              TK  070                            C34Y237               000077
3 TK  0510201J22JUN0710AUG07 2  5   NRT03500350+0900  IST16201620+0300  343                                                              TK  060                            C34Y237               000078
3 TK  0510301J24JUN0724JUN07      7 NRT03500350+0900  IST16201620+0300  343                                                              TK  066                            C34Y237               000079
3 TK  0510401J01JUL0701JUL07      7 NRT03500350+0900  IST16201620+0300  343                                                              TK  046                            C34Y237               000080
3 TK  0510501J08JUL0708JUL07      7 NRT03500350+0900  IST16201620+0300  343                                                              TK 5280                            C34Y237               000081
3 TK  0510601J11JUL0711JUL07  3     NRT03500350+0900  IST16201620+0300  343                                                              TK 9258                            C34Y237               000082
3 TK  0510701J15JUL0715JUL07      7 NRT03500350+0900  IST16201620+0300  343                                                              TK  001                            C34Y237               000083
3 TK  0510801J18JUL0722JUL07  3   7 NRT03500350+0900  IST16201620+0300  343                                                              TK  046                            C34Y237               000084
3 TK  0510901J25JUL0725JUL07  3     NRT03500350+0900  IST16201620+0300  343                                                              TK 1979                            C34Y237               000085
3 TK  0511001J29JUL0729JUL07      7 NRT03500350+0900  IST16201620+0300  343                                                              TK  001                            C34Y237               000086
3 TK  0511101J01AUG0708AUG07  3     NRT03500350+0900  IST16201620+0300  343                                                              TK  070                            C34Y237               000087
3 TK  0511201J05AUG0705AUG07      7 NRT03500350+0900  IST16201620+0300  343                                                              TK  046                            C34Y237               000088
3 TK  0600101J20JUN0701JUL07  34 67 IST20502050+0300  BKK06050605+0700  332                                                              TK  061                            C22Y228               000089
3 TK  0600201J22JUN0729JUN0712  5   IST20502050+0300  BKK06050605+0700  343                                                              TK  061                            C34Y237               000090
3 TK  0600301J02JUL0729JUL071 34 67 IST20502050+0300  BKK06050605+0700  332                                                              TK  061                            C22Y228               000091
3 TK  0600401J03JUL0727JUL07 2  5   IST20502050+0300  BKK06050605+0700  343                                                              TK  061                            C34Y237               000092
3 TK  0600501J30JUL0703AUG0712  5   IST20502050+0300  BKK06050605+0700  343                                                              TK  061                            C34Y237               000093
3 TK  0600601J01AUG0709AUG071 34 67 IST20502050+0300  BKK06050605+0700  332                                                              TK  061                            C22Y228               000094
3 TK  0600701J07AUG0710AUG07 2  5   IST20502050+0300  BKK06050605+0700  343                                                              TK  061                            C34Y237               000095
3 TK  0610101J20JUN0707JUL07  3  6  BKK16351635+0700  IST02500250+0300  343                                                              TK  001                            C34Y237               000096
3 TK  0610201J21JUN0728JUN07   4    BKK16351635+0700  IST02500250+0300  332                                                              TK 1184                            C22Y228               000097
3 TK  0610301J22JUN0706JUL07    5   BKK16351635+0700  IST02500250+0300  332                                                              TK 1527                            C22Y228               000098
3 TK  0610401J24JUN0705AUG07      7 BKK16351635+0700  IST02500250+0300  332                                                              TK 1979                            C22Y228               000099
3 TK  0610501J25JUN0725JUN071       BKK16351635+0700  IST02500250+0300  332                                                              TK 1883                            C22Y228               000100
3 TK  0610601J26JUN0726JUN07 2      BKK16351635+0700  IST02500250+0300  343                                                              TK  005                            C34Y237               000101
3 TK  0610701J02JUL0712JUL071  4    BKK16351635+0700  IST02500250+0300  332                                                              TK 1184                            C22Y228               000102
3 TK  0610801J03JUL0724JUL07 2      BKK16351635+0700  IST02500250+0300  332                                                              TK  001                            C22Y228               000103
3 TK  0610901J11JUL0711JUL07  3     BKK16351635+0700  IST02500250+0300  343                                                              TK 1979                            C34Y237               000104
3 TK  0611001J13JUL0713JUL07    5   BKK16351635+0700  IST02500250+0300  332                                                              TK 1827                            C22Y228               000105
3 TK  0611101J14JUL0728JUL07  3  6  BKK16351635+0700  IST02500250+0300  343                                                              TK  001                            C34Y237               000106
3 TK  0611201J16JUL0716JUL071       BKK16351635+0700  IST02500250+0300  332                                                              TK 1991                            C22Y228               000107
3 TK  0611301J19JUL0726JUL07   4    BKK16351635+0700  IST02500250+0300  332                                                              TK 1184                            C22Y228               000108
3 TK  0611401J20JUL0720JUL07    5   BKK16351635+0700  IST02500250+0300  332                                                              TK 1993                            C22Y228               000109
3 TK  0611501J23JUL0723JUL071       BKK16351635+0700  IST02500250+0300  332                                                              TK 1907                            C22Y228               000110
3 TK  0611601J27JUL0703AUG07    5   BKK16351635+0700  IST02500250+0300  332                                                              TK 1527                            C22Y228               000111
3 TK  0611701J30JUL0730JUL071       BKK16351635+0700  IST02500250+0300  332                                                              TK 1184                            C22Y228               000112
3 TK  0611801J31JUL0731JUL07 2      BKK16351635+0700  IST02500250+0300  343                                                              TK 1825                            C34Y237               000113
3 TK  0611901J01AUG0701AUG07  3     BKK16351635+0700  IST02500250+0300  343                                                              TK 1523                            C34Y237               000114
3 TK  0612001J02AUG0702AUG07   4    BKK16351635+0700  IST02500250+0300  332                                                              TK 1523                            C22Y228               000115
3 TK  0612101J04AUG0708AUG07  3  6  BKK16351635+0700  IST02500250+0300  343                                                              TK  001                            C34Y237               000116
3 TK  0612201J06AUG0706AUG071       BKK16351635+0700  IST02500250+0300  332                                                              TK 1629                            C22Y228               000117
3 TK  0612301J07AUG0707AUG07 2      BKK16351635+0700  IST02500250+0300  332                                                              TK  001                            C22Y228               000118
3 TK  0612401J09AUG0709AUG07   4    BKK16351635+0700  IST02500250+0300  332                                                              TK 1184                            C22Y228               000119
3 TK  0612501J10AUG0710AUG07    5   BKK16351635+0700  IST02500250+0300  332                                                              TK 1825                            C22Y228               000120
3 TK  0660101J21JUN0722JUN07   45   IST20452045+0300  SIN07250725+0800  332                                                              TK  067                            C22Y228               000121
3 TK  0660201J24JUN0724JUN07      7 IST20452045+0300  SIN07250725+0800  343                                                              TK  067                            C34Y237               000122
3 TK  0660301J26JUN0710AUG07 2 45 7 IST20452045+0300  SIN07250725+0800  332                                                              TK  067                            C22Y228               000123
3 TK  0670101J20JUN0730JUN07  3 56  SIN15101510+0800  IST03250325+0300  332                                                              TK 1979                            C22Y228               000124
3 TK  0670201J25JUN0725JUN071       SIN15101510+0800  IST03250325+0300  343                                                              TK  001                            C34Y237               000125
3 TK  0670301J02JUL0707JUL071 3  6  SIN15101510+0800  IST03250325+0300  332                                                              TK 1979                            C22Y228               000126
3 TK  0670401J06JUL0706JUL07    5   SIN15101510+0800  IST03250325+0300  332                                                              TK 1907                            C22Y228               000127
3 TK  0670501J09JUL0709JUL071       SIN15101510+0800  IST03250325+0300  332                                                              TK 1937                            C22Y228               000128
3 TK  0670601J11JUL0711JUL07  3     SIN15101510+0800  IST03250325+0300  332                                                              TK 1629                            C22Y228               000129
3 TK  0670701J13JUL0713JUL07    5   SIN15101510+0800  IST03250325+0300  332                                                              TK  001                            C22Y228               000130
3 TK  0670801J14JUL0714JUL07     6  SIN15101510+0800  IST03250325+0300  332                                                              TK 1184                            C22Y228               000131
3 TK  0670901J16JUL0721JUL071 3 56  SIN15101510+0800  IST03250325+0300  332                                                              TK 1979                            C22Y228               000132
3 TK  0671001J23JUL0723JUL071       SIN15101510+0800  IST03250325+0300  332                                                              TK 1184                            C22Y228               000133
3 TK  0671101J25JUL0725JUL07  3     SIN15101510+0800  IST03250325+0300  332                                                              TK 1629                            C22Y228               000134
3 TK  0671201J27JUL0710AUG071 3 56  SIN15101510+0800  IST03250325+0300  332                                                              TK 1979                            C22Y228               000135
3 TK  0700101J20JUN0708AUG07  3  6  IST20502050+0300  HKG08000800+0800  343                                                              TK  071                            C34Y237               000136
3 TK  0710101J21JUN0705JUL07   4  7 HKG15051505+0800  IST02550255+0300  343                                                              TK  001                            C34Y237               000137
3 TK  0710201J08JUL0729JUL07      7 HKG15051505+0800  IST02550255+0300  343                                                              TK  005                            C34Y237               000138
3 TK  0710301J12JUL0726JUL07   4    HKG15051505+0800  IST02550255+0300  343                                                              TK  001                            C34Y237               000139
3 TK  0710401J02AUG0702AUG07   4    HKG15051505+0800  IST02550255+0300  343                                                              TK  005                            C34Y237               000140
3 TK  0710501J05AUG0709AUG07   4  7 HKG15051505+0800  IST02550255+0300  343                                                              TK  001                            C34Y237               000141
3 TK  0900101J22JUN0701JUL07    5 7 IST16151615+0300  ICN02300230+0900  343                                                              TK  091                            C34Y237               000142
3 TK  0900201J26JUN0726JUN07 2      IST16151615+0300  ICN02300230+0900  332                                                              TK  091                            C22Y228               000143
3 TK  0900301J03JUL0708JUL07 2  5 7 IST16151615+0300  ICN02300230+0900  343                                                              TK  091                            C34Y237               000144
3 TK  0900401J10JUL0707AUG07 2      IST16151615+0300  ICN02300230+0900  332                                                              TK  091                            C22Y228               000145
3 TK  0900501J13JUL0710AUG07    5 7 IST16151615+0300  ICN02300230+0900  343                                                              TK  091                            C34Y237               000146
3 TK  0900601J19JUL0709AUG07   4    IST16151615+0300  ICN02250225+0900  343                                                              TK  091                            C34Y237               000147
3 TK  0910101J20JUN0727JUN07  3     ICN04200420+0900  IST16151615+0300  332                                                              TK  020                            C22Y228               000148
3 TK  0910201J23JUN0704AUG07     6  ICN04200420+0900  IST16151615+0300  343                                                              TK  070                            C34Y237               000149
3 TK  0910301J25JUN0725JUN071       ICN04200420+0900  IST16151615+0300  343                                                              TK  060                            C34Y237               000150
3 TK  0910401J02JUL0702JUL071       ICN04200420+0900  IST16151615+0300  343                                                              TK 9723                            C34Y237               000151
3 TK  0910501J04JUL0704JUL07  3     ICN04200420+0900  IST16151615+0300  343                                                              TK 1827                            C34Y237               000152
3 TK  0910601J09JUL0709JUL071       ICN04200420+0900  IST16151615+0300  343                                                              TK 5354                            C34Y237               000153
3 TK  0910701J11JUL0708AUG07  3     ICN04200420+0900  IST16151615+0300  332                                                              TK  020                            C22Y228               000154
3 TK  0910801J16JUL0716JUL071       ICN04200420+0900  IST16151615+0300  343                                                              TK 1184                            C34Y237               000155
3 TK  0910901J20JUL0710AUG07    5   ICN04150415+0900  IST15551555+0300  343                                                              TK  005                            C34Y237               000156
3 TK  0911001J23JUL0723JUL071       ICN04200420+0900  IST16151615+0300  343                                                              TK 1951                            C34Y237               000157
3 TK  0911101J30JUL0730JUL071       ICN04200420+0900  IST16151615+0300  343                                                              TK  060                            C34Y237               000158
3 TK  0911201J06AUG0706AUG071       ICN04200420+0900  IST16151615+0300  343                                                              TK  0051                           C34Y237               000159
3 TK  0940101J20JUN0725JUN071 3   7 IST18501850+0300  JED22302230+0300  738                                                              TK  095                            C20Y135               000160
3 TK  0940201J23JUN0723JUN07     6  IST18501850+0300  JED22302230+0300  321                                                              TK  095                            C20Y164               000161
3 TK  0940301J27JUN0707JUL07  3  6  IST18501850+0300  JED22302230+0300  738                                                              TK  095                            C20Y135               000162
3 TK  0940401J01JUL0701JUL07      7 IST18501850+0300  JED22302230+0300  313                                                              TK  095                            C18Y192               000163
3 TK  0940501J02JUL0708JUL071     7 IST18501850+0300  JED22302230+0300  321                                                              TK  095                            C20Y164               000164
3 TK  0940601J09JUL0716JUL071       IST18501850+0300  JED22302230+0300  738                                                              TK  095                            C20Y135               000165
3 TK  0940701J11JUL0718JUL07  3     IST18501850+0300  JED22302230+0300  321                                                              TK  095                            C20Y164               000166
3 TK  0940801J14JUL0715JUL07     67 IST18501850+0300  JED22302230+0300  317                                                              TK  095                            C16Y192               000167
3 TK  0940901J21JUL0704AUG071 3  6  IST18501850+0300  JED22302230+0300  738                                                              TK  095                            C20Y135               000168
3 TK  0941001J22JUL0729JUL07      7 IST18501850+0300  JED22302230+0300  317                                                              TK  095                            C16Y192               000169
3 TK  0941101J05AUG0708AUG071 3   7 IST18501850+0300  JED22302230+0300  738                                                              TK  095                            C20Y135               000170
3 TK  0950101J20JUN0720JUN07  3     JED23452345+0300  IST03300330+0300  738                                                              TK 1937                            C20Y135               000171
3 TK  0950201J23JUN0723JUN07     6  JED23452345+0300  IST03300330+0300  321                                                              TK 1873                            C20Y164               000172
3 TK  0950301J24JUN0724JUN07      7 JED23452345+0300  IST03300330+0300  738                                                              TK  412                            C20Y135               000173
3 TK  0950401J25JUN0727JUN071 3     JED23452345+0300  IST03300330+0300  738                                                              TK  806                            C20Y135               000174
3 TK  0950501J30JUN0707JUL07     6  JED23452345+0300  IST03300330+0300  738                                                              TK 1845                            C20Y135               000175
3 TK  0950601J01JUL0701JUL07      7 JED23452345+0300  IST03300330+0300  313                                                              TK 1937                            C18Y192               000176
3 TK  0950701J02JUL0702JUL071       JED23452345+0300  IST03300330+0300  321                                                              TK 1777                            C20Y164               000177
3 TK  0950801J04JUL0704JUL07  3     JED23452345+0300  IST03300330+0300  738                                                              TK  806                            C20Y135               000178
3 TK  0950901J08JUL0708JUL07      7 JED23452345+0300  IST03300330+0300  321                                                              TK 1951                            C20Y164               000179
3 TK  0951001J09JUL0709JUL071       JED23452345+0300  IST03300330+0300  738                                                              TK  458                            C20Y135               000180
3 TK  0951101J11JUL0711JUL07  3     JED23452345+0300  IST03300330+0300  321                                                              TK  286                            C20Y164               000181
3 TK  0951201J14JUL0714JUL07     6  JED23452345+0300  IST03300330+0300  317                                                              TK 1825                            C16Y192               000182
3 TK  0951301J15JUL0729JUL07      7 JED23452345+0300  IST03300330+0300  317                                                              TK 1587                            C16Y192               000183
3 TK  0951401J16JUL0716JUL071       JED23452345+0300  IST03300330+0300  738                                                              TK 1701                            C20Y135               000184
3 TK  0951501J18JUL0718JUL07  3     JED23452345+0300  IST03300330+0300  321                                                              TK 1523                            C20Y164               000185
3 TK  0951601J21JUL0721JUL07     6  JED23452345+0300  IST03300330+0300  738                                                              TK  734                            C20Y135               000186
3 TK  0951701J23JUL0723JUL071       JED23452345+0300  IST03300330+0300  738                                                              TK 1937                            C20Y135               000187
3 TK  0951801J25JUL0725JUL07  3     JED23452345+0300  IST03300330+0300  738                                                              TK 1553                            C20Y135               000188
3 TK  0951901J28JUL0728JUL07     6  JED23452345+0300  IST03300330+0300  738                                                              TK  806                            C20Y135               000189
3 TK  0952001J30JUL0730JUL071       JED23452345+0300  IST03300330+0300  738                                                              TK 1825                            C20Y135               000190
3 TK  0952101J01AUG0701AUG07  3     JED23452345+0300  IST03300330+0300  738                                                              TK 1975                            C20Y135               000191
3 TK  0952201J04AUG0704AUG07     6  JED23452345+0300  IST03300330+0300  738                                                              TK 1153                            C20Y135               000192
3 TK  0952301J05AUG0705AUG07      7 JED23452345+0300  IST03300330+0300  738                                                              TK 1873                            C20Y135               000193
3 TK  0952401J06AUG0706AUG071       JED23452345+0300  IST03300330+0300  738                                                              TK  312                            C20Y135               000194
3 TK  0952501J08AUG0708AUG07  3     JED23452345+0300  IST03300330+0300  738                                                              TK  108                            C20Y135               000195
3 TK  0960101J22JUN0707AUG07 2  5   IST16101610+0300  ADA17451745+0300  738                                                                                                 C20Y135               000196
3 TK  0960102J22JUN0707AUG07 2  5   ADA18351835+0300  JED21202120+0300  738                                                              TK  097                            C20Y135               000197
3 TK  0960201J10AUG0710AUG07    5   IST16101610+0300  ADA17451745+0300  317                                                                                                 C16Y192               000198
3 TK  0960202J10AUG0710AUG07    5   ADA18351835+0300  JED21202120+0300  317                                                              TK  097                            C16Y192               000199
3 TK  0970101J22JUN0722JUN07    5   JED22352235+0300  ADA01350135+0300  738                                                                                                 C20Y135               000200
3 TK  0970102J23JUN0723JUN07     6  ADA02250225+0300  IST04000400+0300  738                                                              TK 1751                            C20Y135               000201
3 TK  0970201J26JUN0726JUN07 2      JED22352235+0300  ADA01350135+0300  738                                                              TK  453                            C20Y135               000202
3 TK  0970202J27JUN0727JUN07  3     ADA02250225+0300  IST04000400+0300  738                                                              TK  108                            C20Y135               000203
3 TK  0970301J29JUN0713JUL07    5   JED22352235+0300  ADA01350135+0300  738                                                                                                 C20Y135               000204
3 TK  0970302J30JUN0714JUL07     6  ADA02250225+0300  IST04000400+0300  738                                                              TK 1873                            C20Y135               000205
3 TK  0970401J03JUL0703JUL07 2      JED22352235+0300  ADA01350135+0300  738                                                                                                 C20Y135               000206
3 TK  0970402J04JUL0704JUL07  3     ADA02250225+0300  IST04000400+0300  738                                                              TK 1629                            C20Y135               000207
3 TK  0970501J10JUL0710JUL07 2      JED22352235+0300  ADA01350135+0300  738                                                                                                 C20Y135               000208
3 TK  0970502J11JUL0711JUL07  3     ADA02250225+0300  IST04000400+0300  738                                                              TK 1435                            C20Y135               000209
3 TK  0970601J17JUL0717JUL07 2      JED22352235+0300  ADA01350135+0300  738                                                                                                 C20Y135               000210
3 TK  0970602J18JUL0718JUL07  3     ADA02250225+0300  IST04000400+0300  738                                                              TK 1721                            C20Y135               000211
3 TK  0970701J20JUL0727JUL07    5   JED22352235+0300  ADA01350135+0300  738                                                                                                 C20Y135               000212
3 TK  0970702J21JUL0728JUL07     6  ADA02250225+0300  IST04000400+0300  738                                                              TK  806                            C20Y135               000213
3 TK  0970801J24JUL0707AUG07 2      JED22352235+0300  ADA01350135+0300  738                                                                                                 C20Y135               000214
3 TK  0970802J25JUL0708AUG07  3     ADA02250225+0300  IST04000400+0300  738                                                              TK 1873                            C20Y135               000215
3 TK  0970901J03AUG0703AUG07    5   JED22352235+0300  ADA01350135+0300  738                                                                                                 C20Y135               000216
3 TK  0970902J04AUG0704AUG07     6  ADA02250225+0300  IST04000400+0300  738                                                              TK 1845                            C20Y135               000217
3 TK  0971001J10AUG0710AUG07    5   JED22352235+0300  ADA01350135+0300  317                                                                                                 C16Y192               000218
3 TK  0971002J11AUG0711AUG07     6  ADA02250225+0300  IST04000400+0300  317                                                              TK 1523                            C16Y192               000219
3 TK  1040101J20JUN0721JUN07  34    IST03150315+0300  ESB04150415+0300  738                                                              TK  111                            C20Y135               000220
3 TK  1040201J26JUN0726JUN07 2      IST03150315+0300  ESB04150415+0300  738                                                              TK  642                            C20Y135               000221
3 TK  1040301J27JUN0727JUN07  3     IST03150315+0300  ESB04150415+0300  738                                                              TK 4903                            C20Y135               000222
3 TK  1040401J28JUN0719JUL07 234    IST03150315+0300  ESB04150415+0300  738                                                              TK  111                            C20Y135               000223
3 TK  1040501J24JUL0709AUG07 2 4    IST03150315+0300  ESB04150415+0300  738                                                              TK  111                            C20Y135               000224
3 TK  1040601J25JUL0725JUL07  3     IST03150315+0300  ESB04150415+0300  320                                                              TK  111                            C12Y141               000225
3 TK  1040701J01AUG0701AUG07  3     IST03150315+0300  ESB04150415+0300  32I                                                              TK  111                            C16Y171               000226
3 TK  1040801J08AUG0708AUG07  3     IST03150315+0300  ESB04150415+0300  738                                                              TK 4903                            C20Y135               000227
3 TK  1050101J20JUN0720JUN07  3     ESB02100210+0300  IST03100310+0300  738                                                              TK  630                            C20Y135               000228
3 TK  1050201J21JUN0721JUN07   4    ESB02100210+0300  IST03100310+0300  320                                                              TK  430                            C12Y141               000229
3 TK  1050301J22JUN0722JUN07    5   ESB02100210+0300  IST03100310+0300  738                                                              TK  236                            C20Y135               000230
3 TK  1050401J23JUN0723JUN07     6  ESB02100210+0300  IST03100310+0300  738                                                              TK  108                            C20Y135               000231
3 TK  1050501J24JUN0724JUN07      7 ESB02100210+0300  IST03100310+0300  734                                                              TK  248                            C30Y120               000232
3 TK  1050601J25JUN0725JUN071       ESB02100210+0300  IST03100310+0300  738                                                              TK  458                            C20Y135               000233
3 TK  1050701J26JUN0726JUN07 2      ESB02100210+0300  IST03100310+0300  320                                                              TK  412                            C12Y141               000234
3 TK  1050801J27JUN0727JUN07  3     ESB02100210+0300  IST03100310+0300  738                                                              TK  734                            C20Y135               000235
3 TK  1050901J28JUN0728JUN07   4    ESB02100210+0300  IST03100310+0300  738                                                              TK 1457                            C20Y135               000236
3 TK  1051001J29JUN0729JUN07    5   ESB02100210+0300  IST03100310+0300  317                                                              TK 1937                            C16Y192               000237
3 TK  1051101J30JUN0730JUN07     6  ESB02100210+0300  IST03100310+0300  738                                                              TK  248                            C20Y135               000238
3 TK  1051201J01JUL0701JUL07      7 ESB02100210+0300  IST03100310+0300  321                                                              TK 1127                            C20Y164               000239
3 TK  1051301J02JUL0702JUL071       ESB02100210+0300  IST03100310+0300  738                                                              TK 1951                            C20Y135               000240
3 TK  1051401J03JUL0703JUL07 2      ESB02100210+0300  IST03100310+0300  320                                                              TK  566                            C12Y141               000241
3 TK  1051501J04JUL0704JUL07  3     ESB02100210+0300  IST03100310+0300  738                                                              TK 1825                            C20Y135               000242
3 TK  1051601J05JUL0705JUL07   4    ESB02100210+0300  IST03100310+0300  738                                                              TK  248                            C20Y135               000243
3 TK  1051701J06JUL0706JUL07    5   ESB02100210+0300  IST03100310+0300  738                                                              TK 1701                            C20Y135               000244
3 TK  1051801J07JUL0707JUL07     6  ESB02100210+0300  IST03100310+0300  738                                                              TK  630                            C20Y135               000245
3 TK  1051901J08JUL0708JUL07      7 ESB02100210+0300  IST03100310+0300  32A                                                              TK  410                            C12Y138               000246
3 TK  1052001J09JUL0709JUL071       ESB02100210+0300  IST03100310+0300  738                                                              TK  106                            C20Y135               000247
3 TK  1052101J10JUL0710JUL07 2      ESB02100210+0300  IST03100310+0300  320                                                              TK  312                            C12Y141               000248
3 TK  1052201J11JUL0711JUL07  3     ESB02100210+0300  IST03100310+0300  738                                                              TK  566                            C20Y135               000249
3 TK  1052301J12JUL0712JUL07   4    ESB02100210+0300  IST03100310+0300  734                                                              TK  734                            C30Y120               000250
3 TK  1052401J13JUL0720JUL07    5   ESB02100210+0300  IST03100310+0300  734                                                              TK  630                            C30Y120               000251
3 TK  1052501J14JUL0714JUL07     6  ESB02100210+0300  IST03100310+0300  320                                                              TK  314                            C12Y141               000252
3 TK  1052601J15JUL0715JUL07      7 ESB02100210+0300  IST03100310+0300  738                                                              TK 1701                            C20Y135               000253
3 TK  1052701J16JUL0722JUL071     7 ESB02100210+0300  IST03100310+0300  734                                                              TK  248                            C30Y120               000254
3 TK  1052801J17JUL0717JUL07 2      ESB02100210+0300  IST03100310+0300  320                                                              TK  630                            C12Y141               000255
3 TK  1052901J18JUL0718JUL07  3     ESB02100210+0300  IST03100310+0300  738                                                              TK 1951                            C20Y135               000256
3 TK  1053001J19JUL0719JUL07   4    ESB02100210+0300  IST03100310+0300  738                                                              TK  630                            C20Y135               000257
3 TK  1053101J21JUL0721JUL07     6  ESB02100210+0300  IST03100310+0300  738                                                              TK 1937                            C20Y135               000258
3 TK  1053201J23JUL0723JUL071       ESB02100210+0300  IST03100310+0300  738                                                              TK  248                            C20Y135               000259
3 TK  1053301J24JUL0724JUL07 2      ESB02100210+0300  IST03100310+0300  320                                                              TK  458                            C12Y141               000260
3 TK  1053401J25JUL0725JUL07  3     ESB02100210+0300  IST03100310+0300  738                                                              TK 1553                            C20Y135               000261
3 TK  1053501J26JUL0726JUL07   4    ESB02100210+0300  IST03100310+0300  734                                                              TK  286                            C30Y120               000262
3 TK  1053601J27JUL0727JUL07    5   ESB02100210+0300  IST03100310+0300  734                                                              TK  734                            C30Y120               000263
3 TK  1053701J28JUL0728JUL07     6  ESB02100210+0300  IST03100310+0300  738                                                              TK  116                            C20Y135               000264
3 TK  1053801J29JUL0729JUL07      7 ESB02100210+0300  IST03100310+0300  734                                                              TK  314                            C30Y120               000265
3 TK  1053901J30JUL0730JUL071       ESB02100210+0300  IST03100310+0300  32A                                                              TK  106                            C12Y138               000266
3 TK  1054001J31JUL0731JUL07 2      ESB02100210+0300  IST03100310+0300  738                                                              TK  410                            C20Y135               000267
3 TK  1054101J01AUG0701AUG07  3     ESB02100210+0300  IST03100310+0300  320                                                              TK 1907                            C12Y141               000268
3 TK  1054201J02AUG0702AUG07   4    ESB02100210+0300  IST03100310+0300  320                                                              TK 1825                            C12Y141               000269
3 TK  1054301J03AUG0703AUG07    5   ESB02100210+0300  IST03100310+0300  317                                                              TK 1587                            C16Y192               000270
3 TK  1054401J04AUG0704AUG07     6  ESB02100210+0300  IST03100310+0300  738                                                              TK 1661                            C20Y135               000271
3 TK  1054501J05AUG0710AUG07    5 7 ESB02100210+0300  IST03100310+0300  734                                                              TK  630                            C30Y120               000272
3 TK  1054601J06AUG0706AUG071       ESB02100210+0300  IST03100310+0300  738                                                              TK 1975                            C20Y135               000273
3 TK  1054701J07AUG0707AUG07 2      ESB02100210+0300  IST03100310+0300  320                                                              TK  630                            C12Y141               000274
3 TK  1054801J08AUG0708AUG07  3     ESB02100210+0300  IST03100310+0300  738                                                              TK  566                            C20Y135               000275
3 TK  1054901J09AUG0709AUG07   4    ESB02100210+0300  IST03100310+0300  738                                                              TK  248                            C20Y135               000276
3 TK  1060101J20JUN0727JUN07  3     IST04000400+0300  ESB05000500+0300  734                                                              TK  113                            C30Y120               000277
3 TK  1060201J21JUN0721JUN07   4    IST04000400+0300  ESB05000500+0300  32A                                                              TK  113                            C12Y138               000278
3 TK  1060301J22JUN0722JUN07    5   IST04000400+0300  ESB05000500+0300  738                                                              TK 1605                            C20Y135               000279
3 TK  1060401J24JUN0724JUN07      7 IST04000400+0300  ESB05000500+0300  313                                                              TK  115                            C18Y192               000280
3 TK  1060501J25JUN0701JUL071     7 IST04000400+0300  ESB05000500+0300  738                                                              TK  115                            C20Y135               000281
3 TK  1060601J26JUN0706JUL0712  5   IST04000400+0300  ESB05000500+0300  738                                                              TK  113                            C20Y135               000282
3 TK  1060701J28JUN0728JUN07   4    IST04000400+0300  ESB05000500+0300  738                                                              TK  113                            C20Y135               000283
3 TK  1060801J04JUL0705JUL07  34    IST04000400+0300  ESB05000500+0300  320                                                              TK  113                            C12Y141               000284
3 TK  1060901J08JUL0708JUL07      7 IST04000400+0300  ESB05000500+0300  734                                                              TK  115                            C30Y120               000285
3 TK  1061001J09JUL0715JUL071     7 IST04000400+0300  ESB05000500+0300  738                                                              TK  115                            C20Y135               000286
3 TK  1061101J10JUL0717JUL07123 5   IST04000400+0300  ESB05000500+0300  738                                                              TK  113                            C20Y135               000287
3 TK  1061201J12JUL0712JUL07   4    IST04000400+0300  ESB05000500+0300  32P                                                              TK  113                            C12Y134               000288
3 TK  1061301J18JUL0723JUL071 3     IST04000400+0300  ESB05000500+0300  734                                                              TK  113                            C30Y120               000289
3 TK  1061401J19JUL0719JUL07   4    IST04000400+0300  ESB05000500+0300  32A                                                              TK  113                            C12Y138               000290
3 TK  1061501J20JUL0726JUL07 2 45   IST04000400+0300  ESB05000500+0300  738                                                              TK  113                            C20Y135               000291
3 TK  1061601J22JUL0722JUL07      7 IST04000400+0300  ESB05000500+0300  738                                                              TK  115                            Y165                  000292
3 TK  1061701J25JUL0710AUG07  3 5   IST04000400+0300  ESB05000500+0300  734                                                              TK  113                            C30Y120               000293
3 TK  1061801J29JUL0705AUG07      7 IST04000400+0300  ESB05000500+0300  738                                                              TK  115                            C20Y135               000294
3 TK  1061901J30JUL0730JUL071       IST04000400+0300  ESB05000500+0300  32A                                                              TK  115                            C12Y138               000295
3 TK  1062001J31JUL0731JUL07 2      IST04000400+0300  ESB05000500+0300  319                                                              TK  656                            C28Y84                000296
3 TK  1062101J02AUG0709AUG0712 4    IST04000400+0300  ESB05000500+0300  738                                                              TK  113                            C20Y135               000297
3 TK  1080101J20JUN0720JUN07  3     IST05000500+0300  ESB06000600+0300  738                                                              TK  123                            C20Y135               000298
3 TK  1080201J21JUN0721JUN07   4    IST05000500+0300  ESB06000600+0300  738                                                              TK 1541                            C20Y135               000299
3 TK  1080301J22JUN0722JUN07    5   IST05000500+0300  ESB06000600+0300  32A                                                              TK  117                            C12Y138               000300
3 TK  1080401J23JUN0723JUN07     6  IST05000500+0300  ESB06000600+0300  738                                                              TK 5539                            C20Y135               000301
3 TK  1080501J24JUN0724JUN07      7 IST05000500+0300  ESB06000600+0300  734                                                              TK 4911                            C30Y120               000302
3 TK  1080601J25JUN0725JUN071       IST05000500+0300  ESB06000600+0300  738                                                              TK  804                            C20Y135               000303
3 TK  1080701J26JUN0702JUL0712      IST05000500+0300  ESB06000600+0300  738                                                              TK  117                            C20Y135               000304
3 TK  1080801J27JUN0730JUN07  3  6  IST05000500+0300  ESB06000600+0300  738                                                              TK 1905                            C20Y135               000305
3 TK  1080901J28JUN0704JUL07  345   IST05000500+0300  ESB06000600+0300  738                                                              TK 1935                            C20Y135               000306
3 TK  1081001J01JUL0701JUL07      7 IST05000500+0300  ESB06000600+0300  734                                                              TK 4961                            C30Y120               000307
3 TK  1081101J03JUL0703JUL07 2      IST05000500+0300  ESB06000600+0300  738                                                              TK 1541                            C20Y135               000308
3 TK  1081201J05JUL0707JUL07   456  IST05000500+0300  ESB06000600+0300  738                                                              TK 1605                            C20Y135               000309
3 TK  1081301J08JUL0708JUL07      7 IST05000500+0300  ESB06000600+0300  738                                                              TK 4905                            C20Y135               000310
3 TK  1081401J09JUL0709JUL071       IST05000500+0300  ESB06000600+0300  738                                                              TK  119                            C20Y135               000311
3 TK  1081501J10JUL0710JUL07 2      IST05000500+0300  ESB06000600+0300  320                                                              TK  117                            C12Y141               000312
3 TK  1081601J11JUL0711JUL07  3     IST05000500+0300  ESB06000600+0300  32I                                                              TK  123                            C16Y171               000313
3 TK  1081701J12JUL0712JUL07   4    IST05000500+0300  ESB06000600+0300  738                                                              TK 1935                            C20Y135               000314
3 TK  1081801J13JUL0713JUL07    5   IST05000500+0300  ESB06000600+0300  320                                                              TK 1605                            C12Y141               000315
3 TK  1081901J14JUL0714JUL07     6  IST05000500+0300  ESB06000600+0300  738                                                              TK 5909                            C20Y135               000316
3 TK  1082001J15JUL0715JUL07      7 IST05000500+0300  ESB06000600+0300  734                                                              TK 4986                            C30Y120               000317
3 TK  1082101J16JUL0716JUL071       IST05000500+0300  ESB06000600+0300  738                                                              TK  117                            C20Y135               000318
3 TK  1082201J17JUL0717JUL07 2      IST05000500+0300  ESB06000600+0300  738                                                              TK 1605                            C20Y135               000319
3 TK  1082301J18JUL0719JUL07  34    IST05000500+0300  ESB06000600+0300  738                                                              TK  804                            C20Y135               000320
3 TK  1082401J20JUL0720JUL07    5   IST05000500+0300  ESB06000600+0300  734                                                              TK  384                            C30Y120               000321
3 TK  1082501J21JUL0721JUL07     6  IST05000500+0300  ESB06000600+0300  738                                                              TK 1905                            C20Y135               000322
3 TK  1082601J22JUL0722JUL07      7 IST05000500+0300  ESB06000600+0300  738                                                              TK 4111                            C20Y135               000323
3 TK  1082701J23JUL0726JUL071  4    IST05000500+0300  ESB06000600+0300  321                                                              TK  117                            C20Y164               000324
3 TK  1082801J24JUL0725JUL07 23     IST05000500+0300  ESB06000600+0300  321                                                              TK  123                            C20Y164               000325
3 TK  1082901J27JUL0727JUL07    5   IST05000500+0300  ESB06000600+0300  32I                                                              TK  123                            C16Y171               000326
3 TK  1083001J28JUL0728JUL07     6  IST05000500+0300  ESB06000600+0300  738                                                              TK 5793                            C20Y135               000327
3 TK  1083101J29JUL0729JUL07      7 IST05000500+0300  ESB06000600+0300  320                                                              TK 4961                            C12Y141               000328
3 TK  1083201J30JUL0730JUL071       IST05000500+0300  ESB06000600+0300  738                                                              TK  642                            C20Y135               000329
3 TK  1083301J31JUL0707AUG07 2      IST05000500+0300  ESB06000600+0300  738                                                              TK 1605                            C20Y135               000330
3 TK  1083401J01AUG0702AUG07  34    IST05000500+0300  ESB06000600+0300  738                                                              TK 1935                            C20Y135               000331
3 TK  1083501J03AUG0703AUG07    5   IST05000500+0300  ESB06000600+0300  738                                                              TK 1717                            C20Y135               000332
3 TK  1083601J04AUG0704AUG07     6  IST05000500+0300  ESB06000600+0300  738                                                              TK 9367                            C20Y135               000333
3 TK  1083701J05AUG0705AUG07      7 IST05000500+0300  ESB06000600+0300  734                                                              TK 1889                            C30Y120               000334
3 TK  1083801J06AUG0706AUG071       IST05000500+0300  ESB06000600+0300  738                                                              TK  804                            C20Y135               000335
3 TK  1083901J08AUG0708AUG07  3     IST05000500+0300  ESB06000600+0300  738                                                              TK 1905                            C20Y135               000336
3 TK  1084001J09AUG0710AUG07   45   IST05000500+0300  ESB06000600+0300  738                                                              TK 1935                            C20Y135               000337
3 TK  1090101J20JUN0720JUN07  3     ESB04300430+0300  IST05300530+0300  738                                                              TK 1857                            C20Y135               000338
3 TK  1090201J21JUN0721JUN07   4    ESB04300430+0300  IST05300530+0300  738                                                              TK 1793                            C20Y135               000339
3 TK  1090301J22JUN0725JUN071   56  ESB04300430+0300  IST05300530+0300  738                                                              TK  430                            C20Y135               000340
3 TK  1090401J24JUN0724JUN07      7 ESB04300430+0300  IST05300530+0300  738                                                              TK 1783                            C20Y135               000341
3 TK  1090501J26JUN0702JUL0712   6  ESB04300430+0300  IST05300530+0300  738                                                              TK  288                            C20Y135               000342
3 TK  1090601J27JUN0727JUN07  3     ESB04300430+0300  IST05300530+0300  734                                                              TK  758                            C30Y120               000343
3 TK  1090701J28JUN0728JUN07   4    ESB04300430+0300  IST05300530+0300  734                                                              TK  288                            C30Y120               000344
3 TK  1090801J29JUN0729JUN07    5   ESB04300430+0300  IST05300530+0300  738                                                              TK  758                            C20Y135               000345
3 TK  1090901J01JUL0701JUL07      7 ESB04300430+0300  IST05300530+0300  734                                                              TK 1505                            C30Y120               000346
3 TK  1091001J03JUL0710JUL07 2      ESB04300430+0300  IST05300530+0300  738                                                              TK 1417                            C20Y135               000347
3 TK  1091101J04JUL0706JUL07  3 5   ESB04300430+0300  IST05300530+0300  738                                                              TK  430                            C20Y135               000348
3 TK  1091201J05JUL0705JUL07   4    ESB04300430+0300  IST05300530+0300  734                                                              TK 1783                            C30Y120               000349
3 TK  1091301J07JUL0707JUL07     6  ESB04300430+0300  IST05300530+0300  738                                                              TK 1861                            C20Y135               000350
3 TK  1091401J08JUL0708JUL07      7 ESB04300430+0300  IST05300530+0300  734                                                              TK  758                            C30Y120               000351
3 TK  1091501J09JUL0709JUL071       ESB04300430+0300  IST05300530+0300  738                                                              TK  758                            C20Y135               000352
3 TK  1091601J11JUL0713JUL07  3 5   ESB04300430+0300  IST05300530+0300  738                                                              TK 1793                            C20Y135               000353
3 TK  1091701J12JUL0717JUL07 2 4 6  ESB04300430+0300  IST05300530+0300  738                                                              TK  430                            C20Y135               000354
3 TK  1091801J15JUL0715JUL07      7 ESB04300430+0300  IST05300530+0300  738                                                              TK 1995                            C20Y135               000355
3 TK  1091901J16JUL0716JUL071       ESB04300430+0300  IST05300530+0300  738                                                              TK  288                            C20Y135               000356
3 TK  1092001J18JUL0718JUL07  3     ESB04300430+0300  IST05300530+0300  734                                                              TK 1765                            C30Y120               000357
3 TK  1092101J19JUL0719JUL07   4    ESB04300430+0300  IST05300530+0300  734                                                              TK  288                            C30Y120               000358
3 TK  1092201J20JUL0720JUL07    5   ESB04300430+0300  IST05300530+0300  738                                                              TK 1867                            C20Y135               000359
3 TK  1092301J21JUL0727JUL071   56  ESB04300430+0300  IST05300530+0300  738                                                              TK  430                            C20Y135               000360
3 TK  1092401J22JUL0722JUL07      7 ESB04300430+0300  IST05300530+0300  734                                                              TK  758                            C30Y120               000361
3 TK  1092501J24JUL0724JUL07 2      ESB04300430+0300  IST05300530+0300  738                                                              TK  288                            C20Y135               000362
3 TK  1092601J25JUL0725JUL07  3     ESB04300430+0300  IST05300530+0300  734                                                              TK  430                            C30Y120               000363
3 TK  1092701J26JUL0709AUG07   4    ESB04300430+0300  IST05300530+0300  32P                                                              TK  288                            C12Y134               000364
3 TK  1092801J28JUL0729JUL07     67 ESB04300430+0300  IST05300530+0300  734                                                              TK  316                            C30Y120               000365
3 TK  1092901J30JUL0730JUL071       ESB04300430+0300  IST05300530+0300  734                                                              TK  758                            C30Y120               000366
3 TK  1093001J31JUL0703AUG07 2  5   ESB04300430+0300  IST05300530+0300  738                                                              TK  430                            C20Y135               000367
3 TK  1093101J01AUG0701AUG07  3     ESB04300430+0300  IST05300530+0300  738                                                              TK 1765                            C20Y135               000368
3 TK  1093201J04AUG0704AUG07     6  ESB04300430+0300  IST05300530+0300  32I                                                              TK 1853                            C16Y171               000369
3 TK  1093301J05AUG0705AUG07      7 ESB04300430+0300  IST05300530+0300  738                                                              TK 1131                            C20Y135               000370
3 TK  1093401J06AUG0706AUG071       ESB04300430+0300  IST05300530+0300  320                                                              TK  430                            C12Y141               000371
3 TK  1093501J07AUG0707AUG07 2      ESB04300430+0300  IST05300530+0300  738                                                              TK 1995                            C20Y135               000372
3 TK  1093601J08AUG0708AUG07  3     ESB04300430+0300  IST05300530+0300  734                                                              TK  758                            C30Y120               000373
3 TK  1093701J10AUG0710AUG07    5   ESB04300430+0300  IST05300530+0300  738                                                              TK  430                            C20Y135               000374
3 TK  1100101J22JUN0720JUL07    5   IST05300530+0300  ESB06300630+0300  32L                                                              TK  804                            Y168                  000375
3 TK  1100201J27JUL0727JUL07    5   IST05300530+0300  ESB06300630+0300  32E                                                              TK  804                            Y167                  000376
3 TK  1100301J03AUG0710AUG07    5   IST05300530+0300  ESB06300630+0300  32L                                                              TK  804                            Y168                  000377
3 TK  1110101J20JUN0720JUN07  3     ESB05000500+0300  IST06000600+0300  738                                                              TK  430                            C20Y135               000378
3 TK  1110201J21JUN0721JUN07   4    ESB05000500+0300  IST06000600+0300  738                                                              TK 1759                            C20Y135               000379
3 TK  1110301J22JUN0725JUN071   5   ESB05000500+0300  IST06000600+0300  738                                                              TK 1783                            C20Y135               000380
3 TK  1110401J23JUN0723JUN07     6  ESB05000500+0300  IST06000600+0300  32I                                                              TK  216                            C16Y171               000381
3 TK  1110501J24JUN0724JUN07      7 ESB05000500+0300  IST06000600+0300  738                                                              TK 1857                            C20Y135               000382
3 TK  1110601J26JUN0726JUN07 2      ESB05000500+0300  IST06000600+0300  734                                                              TK 1793                            C30Y120               000383
3 TK  1110701J27JUN0727JUN07  3     ESB05000500+0300  IST06000600+0300  32L                                                              TK 1505                            Y168                  000384
3 TK  1110801J28JUN0728JUN07   4    ESB05000500+0300  IST06000600+0300  738                                                              TK 1835                            C20Y135               000385
3 TK  1110901J29JUN0705JUL07   45   ESB05000500+0300  IST06000600+0300  738                                                              TK 1805                            C20Y135               000386
3 TK  1111001J30JUN0721JUL07     6  ESB05000500+0300  IST06000600+0300  32I                                                              TK 1777                            C16Y171               000387
3 TK  1111101J01JUL0708JUL07      7 ESB05000500+0300  IST06000600+0300  738                                                              TK 1759                            C20Y135               000388
3 TK  1111201J02JUL0702JUL071       ESB05000500+0300  IST06000600+0300  734                                                              TK  120                            C30Y120               000389
3 TK  1111301J03JUL0703JUL07 2      ESB05000500+0300  IST06000600+0300  738                                                              TK 1431                            C20Y135               000390
3 TK  1111401J04JUL0704JUL07  3     ESB05000500+0300  IST06000600+0300  738                                                              TK 1857                            C20Y135               000391
3 TK  1111501J06JUL0713JUL07    5   ESB05000500+0300  IST06000600+0300  738                                                              TK 1131                            C20Y135               000392
3 TK  1111601J09JUL0711JUL071 3     ESB05000500+0300  IST06000600+0300  738                                                              TK 1135                            C20Y135               000393
3 TK  1111701J10JUL0710JUL07 2      ESB05000500+0300  IST06000600+0300  738                                                              TK 1793                            C20Y135               000394
3 TK  1111801J12JUL0712JUL07   4    ESB05000500+0300  IST06000600+0300  738                                                              TK 1759                            C20Y135               000395
3 TK  1111901J15JUL0715JUL07      7 ESB05000500+0300  IST06000600+0300  738                                                              TK 1144                            C20Y135               000396
3 TK  1112001J16JUL0716JUL071       ESB05000500+0300  IST06000600+0300  734                                                              TK 1765                            C30Y120               000397
3 TK  1112101J17JUL0722JUL07 2 4  7 ESB05000500+0300  IST06000600+0300  738                                                              TK 1857                            C20Y135               000398
3 TK  1112201J18JUL0718JUL07  3     ESB05000500+0300  IST06000600+0300  738                                                              TK 1783                            C20Y135               000399
3 TK  1112301J20JUL0720JUL07    5   ESB05000500+0300  IST06000600+0300  738                                                              TK  320                            C20Y135               000400
3 TK  1112401J23JUL0723JUL071       ESB05000500+0300  IST06000600+0300  738                                                              TK 1777                            C20Y135               000401
3 TK  1112501J24JUL0724JUL07 2      ESB05000500+0300  IST06000600+0300  738                                                              TK 1793                            C20Y135               000402
3 TK  1112601J25JUL0725JUL07  3     ESB05000500+0300  IST06000600+0300  320                                                              TK 1857                            C12Y141               000403
3 TK  1112701J26JUL0726JUL07   4    ESB05000500+0300  IST06000600+0300  738                                                              TK 1783                            C20Y135               000404
3 TK  1112801J27JUL0727JUL07    5   ESB05000500+0300  IST06000600+0300  734                                                              TK 1867                            C30Y120               000405
3 TK  1112901J28JUL0729JUL07     67 ESB05000500+0300  IST06000600+0300  738                                                              TK 1857                            C20Y135               000406
3 TK  1113001J30JUL0730JUL071       ESB05000500+0300  IST06000600+0300  734                                                              TK  120                            C30Y120               000407
3 TK  1113101J31JUL0731JUL07 2      ESB05000500+0300  IST06000600+0300  738                                                              TK 1805                            C20Y135               000408
3 TK  1113201J01AUG0701AUG07  3     ESB05000500+0300  IST06000600+0300  32I                                                              TK 1857                            C16Y171               000409
3 TK  1113301J02AUG0709AUG07 2 4    ESB05000500+0300  IST06000600+0300  738                                                              TK 1759                            C20Y135               000410
3 TK  1113401J03AUG0703AUG07    5   ESB05000500+0300  IST06000600+0300  738                                                              TK 1995                            C20Y135               000411
3 TK  1113501J04AUG0704AUG07     6  ESB05000500+0300  IST06000600+0300  734                                                              TK  462                            C30Y120               000412
3 TK  1113601J05AUG0705AUG07      7 ESB05000500+0300  IST06000600+0300  738                                                              TK 1835                            C20Y135               000413
3 TK  1113701J06AUG0706AUG071       ESB05000500+0300  IST06000600+0300  734                                                              TK 1765                            C30Y120               000414
3 TK  1113801J08AUG0708AUG07  3     ESB05000500+0300  IST06000600+0300  738                                                              TK 1857                            C20Y135               000415
3 TK  1113901J10AUG0710AUG07    5   ESB05000500+0300  IST06000600+0300  738                                                              TK 1867                            C20Y135               000416
3 TK  1130101J20JUN0727JUN07  3 5   ESB06000600+0300  IST07000700+0300  734                                                              TK  320                            C30Y120               000417
3 TK  1130201J21JUN0721JUN07   4    ESB06000600+0300  IST07000700+0300  32A                                                              TK 1505                            C12Y138               000418
3 TK  1130301J23JUN0723JUN07     6  ESB06000600+0300  IST07000700+0300  738                                                              TK  120                            C20Y135               000419
3 TK  1130401J24JUN0705AUG07      7 ESB06050605+0300  IST07000700+0300  734                                                              TK  120                            C30Y120               000420
3 TK  1130501J25JUN0725JUN071       ESB06000600+0300  IST07000700+0300  738                                                              TK  320                            C20Y135               000421
3 TK  1130601J26JUN0726JUN07 2      ESB06000600+0300  IST07000700+0300  738                                                              TK 1759                            C20Y135               000422
3 TK  1130701J28JUN0728JUN07   4    ESB06000600+0300  IST06550655+0300  738                                                              TK 1505                            C20Y135               000423
3 TK  1130801J29JUN0706JUL07    5   ESB06000600+0300  IST07000700+0300  738                                                              TK 1977                            C20Y135               000424
3 TK  1130901J30JUN0730JUN07     6  ESB06000600+0300  IST07000700+0300  734                                                              TK  320                            C30Y120               000425
3 TK  1131001J02JUL0702JUL071       ESB06000600+0300  IST07000700+0300  738                                                              TK 1765                            C20Y135               000426
3 TK  1131101J03JUL0703JUL07 2      ESB06000600+0300  IST07000700+0300  738                                                              TK 1805                            C20Y135               000427
3 TK  1131201J04JUL0704JUL07  3     ESB06000600+0300  IST07000700+0300  320                                                              TK  120                            C12Y141               000428
3 TK  1131301J05JUL0705JUL07   4    ESB06000600+0300  IST07000700+0300  320                                                              TK  414                            C12Y141               000429
3 TK  1131401J07JUL0721JUL07     6  ESB06000600+0300  IST07000700+0300  738                                                              TK  120                            C20Y135               000430
3 TK  1131501J09JUL0709JUL071       ESB06000600+0300  IST07000700+0300  734                                                              TK 1765                            C30Y120               000431
3 TK  1131601J10JUL0710JUL07 2      ESB06000600+0300  IST07000700+0300  738                                                              TK 1465                            C20Y135               000432
3 TK  1131701J11JUL0711JUL07  3     ESB06000600+0300  IST07000700+0300  738                                                              TK 1765                            C20Y135               000433
3 TK  1131801J12JUL0712JUL07   4    ESB06000600+0300  IST07000700+0300  32P                                                              TK  462                            C12Y134               000434
3 TK  1131901J13JUL0716JUL071   5   ESB06000600+0300  IST07000700+0300  738                                                              TK 1505                            C20Y135               000435
3 TK  1132001J17JUL0717JUL07 2      ESB06000600+0300  IST07000700+0300  738                                                              TK 1805                            C20Y135               000436
3 TK  1132101J18JUL0725JUL07  3     ESB06000600+0300  IST07000700+0300  734                                                              TK  320                            C30Y120               000437
3 TK  1132201J19JUL0719JUL07   4    ESB06000600+0300  IST07000700+0300  32A                                                              TK 1505                            C12Y138               000438
3 TK  1132301J20JUL0720JUL07    5   ESB06000600+0300  IST07000700+0300  738                                                              TK 1755                            C20Y135               000439
3 TK  1132401J23JUL0723JUL071       ESB06000600+0300  IST07000700+0300  734                                                              TK 1505                            C30Y120               000440
3 TK  1132501J24JUL0724JUL07 2      ESB06000600+0300  IST07000700+0300  738                                                              TK 1465                            C20Y135               000441
3 TK  1132601J26JUL0702AUG07   4    ESB06000600+0300  IST07000700+0300  738                                                              TK 1505                            C20Y135               000442
3 TK  1132701J27JUL0728JUL07    56  ESB06000600+0300  IST07000700+0300  734                                                              TK  120                            C30Y120               000443
3 TK  1132801J30JUL0730JUL071       ESB06000600+0300  IST07000700+0300  738                                                              TK 1765                            C20Y135               000444
3 TK  1132901J31JUL0731JUL07 2      ESB06000600+0300  IST07000700+0300  734                                                              TK 1465                            C30Y120               000445
3 TK  1133001J01AUG0708AUG07  3 5   ESB06000600+0300  IST07000700+0300  734                                                              TK  320                            C30Y120               000446
3 TK  1133101J04AUG0707AUG0712   6  ESB06000600+0300  IST07000700+0300  738                                                              TK 1505                            C20Y135               000447
3 TK  1133201J09AUG0709AUG07   4    ESB06000600+0300  IST07000700+0300  738                                                              TK  754                            C20Y135               000448
3 TK  1133301J10AUG0710AUG07    5   ESB06000600+0300  IST07000700+0300  734                                                              TK  120                            C30Y120               000449
3 TK  1150101J24JUN0724JUN07      7 ESB05450545+0300  IST06450645+0300  313                                                              TK 1853                            C18Y192               000450
3 TK  1150201J25JUN0725JUN071       ESB05450545+0300  IST06450645+0300  738                                                              TK 1805                            C20Y135               000451
3 TK  1150301J01JUL0701JUL07      7 ESB05450545+0300  IST06450645+0300  738                                                              TK 1755                            C20Y135               000452
3 TK  1150401J02JUL0702JUL071       ESB05450545+0300  IST06450645+0300  738                                                              TK 1777                            C20Y135               000453
3 TK  1150501J08JUL0708JUL07      7 ESB05450545+0300  IST06450645+0300  734                                                              TK  320                            C30Y120               000454
3 TK  1150601J09JUL0709JUL071       ESB05450545+0300  IST06450645+0300  738                                                              TK 1505                            C20Y135               000455
3 TK  1150701J15JUL0715JUL07      7 ESB05450545+0300  IST06450645+0300  738                                                              TK 1977                            C20Y135               000456
3 TK  1150801J16JUL0716JUL071       ESB05450545+0300  IST06450645+0300  738                                                              TK 1805                            C20Y135               000457
3 TK  1150901J22JUL0722JUL07      7 ESB05450545+0300  IST06450645+0300  738                                                              TK 1755                            Y165                  000458
3 TK  1151001J23JUL0723JUL071       ESB05450545+0300  IST06450645+0300  734                                                              TK 1765                            C30Y120               000459
3 TK  1151101J29JUL0729JUL07      7 ESB05450545+0300  IST06450645+0300  738                                                              TK 1759                            C20Y135               000460
3 TK  1151201J30JUL0730JUL071       ESB05450545+0300  IST06450645+0300  32A                                                              TK  414                            C12Y138               000461
3 TK  1151301J05AUG0705AUG07      7 ESB05450545+0300  IST06450645+0300  738                                                              TK 1465                            C20Y135               000462
3 TK  1151401J06AUG0706AUG071       ESB05450545+0300  IST06450645+0300  738                                                              TK 1805                            C20Y135               000463
3 TK  1160101J20JUN0727JUN07  34    IST06000600+0300  ESB07000700+0300  738                                                              TK 1935                            C20Y135               000464
3 TK  1160201J22JUN0706JUL07    5   IST06000600+0300  ESB07000700+0300  313                                                              TK  123                            C18Y192               000465
3 TK  1160301J23JUN0723JUN07     6  IST06000600+0300  ESB07000700+0300  738                                                              TK  123                            C20Y135               000466
3 TK  1160401J24JUN0724JUN07      7 IST06000600+0300  ESB07000700+0300  738                                                              TK 1605                            C20Y135               000467
3 TK  1160501J25JUN0725JUN071       IST06000600+0300  ESB07000700+0300  32I                                                              TK  123                            C16Y171               000468
3 TK  1160601J26JUN0726JUN07 2      IST06000600+0300  ESB07000700+0300  317                                                              TK  123                            C16Y192               000469
3 TK  1160701J28JUN0705JUL07   4    IST06000600+0300  ESB07000700+0300  738                                                              TK 1541                            C20Y135               000470
3 TK  1160801J30JUN0730JUN07     6  IST06000600+0300  ESB07000700+0300  32P                                                              TK  123                            C12Y134               000471
3 TK  1160901J01JUL0701JUL07      7 IST06000600+0300  ESB07000700+0300  32M                                                              TK  123                            C26Y155               000472
3 TK  1161001J02JUL0704JUL071 3     IST06000600+0300  ESB07000700+0300  738                                                              TK  804                            C20Y135               000473
3 TK  1161101J03JUL0709JUL0712      IST06000600+0300  ESB07000700+0300  321                                                              TK  123                            C20Y164               000474
3 TK  1161201J07JUL0708JUL07     67 IST06000600+0300  ESB07000700+0300  320                                                              TK  123                            C12Y141               000475
3 TK  1161301J10JUL0716JUL0712      IST06000600+0300  ESB07000700+0300  738                                                              TK  123                            C20Y135               000476
3 TK  1161401J11JUL0711JUL07  3     IST06000600+0300  ESB07000700+0300  738                                                              TK 1905                            C20Y135               000477
3 TK  1161501J12JUL0712JUL07   4    IST06000600+0300  ESB07000700+0300  738                                                              TK  804                            C20Y135               000478
3 TK  1161601J13JUL0713JUL07    5   IST06000600+0300  ESB07000700+0300  332                                                              TK  123                            C22Y228               000479
3 TK  1161701J14JUL0714JUL07     6  IST06000600+0300  ESB07000700+0300  32P                                                              TK  123                            C12Y134               000480
3 TK  1161801J15JUL0715JUL07      7 IST06000600+0300  ESB07000700+0300  320                                                              TK  804                            C12Y141               000481
3 TK  1161901J17JUL0717JUL07 2      IST06000600+0300  ESB07000700+0300  32I                                                              TK  123                            C16Y171               000482
3 TK  1162001J18JUL0725JUL07  3     IST06000600+0300  ESB07000700+0300  738                                                              TK 1935                            C20Y135               000483
3 TK  1162101J19JUL0719JUL07   4    IST06000600+0300  ESB07000700+0300  738                                                              TK 1605                            C20Y135               000484
3 TK  1162201J20JUL0720JUL07    5   IST06000600+0300  ESB07000700+0300  313                                                              TK  123                            C18Y192               000485
3 TK  1162301J21JUL0721JUL07     6  IST06000600+0300  ESB07000700+0300  320                                                              TK  123                            C12Y141               000486
3 TK  1162401J22JUL0728JUL071    67 IST06000600+0300  ESB07000700+0300  738                                                              TK  123                            C20Y135               000487
3 TK  1162501J24JUL0726JUL07 2 4    IST06000600+0300  ESB07000700+0300  738                                                              TK 1541                            C20Y135               000488
3 TK  1162601J27JUL0727JUL07    5   IST06000600+0300  ESB07000700+0300  738                                                              TK 1889                            C20Y135               000489
